:020000040800F2
:1000000000180020AD150008C9040008CB04000842
:1000100000000000000000000000000000000000E0
:10002000000000000000000000000000CD040008F7
:100030000000000000000000CF040008D104000808
:100040002D1600082D1600082D1600082D16000884
:100050002D1600082D1600082D1600082D16000874
:100060002D1600082D1600082D1600082D16000864
:100070002D1600082D1600082D1600082D16000854
:100080002D16000800000000000000002D160008DA
:10009000000000002D1600082D1600082D1600087F
:1000A000000000002D1600082D1600082D1600086F
:1000B0002D160008000000002D1600082D1600085F
:1000C000002243088B4274D303098B425FD3030A97
:1000D0008B4244D3030B8B4228D3030C8B420DD3AA
:1000E000FF22090212BA030C8B4202D31212090238
:1000F00065D0030B8B4219D300E0090AC30B8B4276
:1001000001D3CB03C01A5241830B8B4201D38B0323
:10011000C01A5241430B8B4201D34B03C01A5241C8
:10012000030B8B4201D30B03C01A5241C30A8B420B
:1001300001D3CB02C01A5241830A8B4201D38B02F6
:10014000C01A5241430A8B4201D34B02C01A52419A
:10015000030A8B4201D30B02C01A5241CDD2C3090C
:100160008B4201D3CB01C01A524183098B4201D388
:100170008B01C01A524143098B4201D34B01C01A73
:10018000524103098B4201D30B01C01A5241C308EB
:100190008B4201D3CB00C01A524183088B4201D35A
:1001A0008B00C01A524143088B4201D34B00C01A46
:1001B0005241411A00D20146524110467047FFE7B2
:1001C00001B5002000F006F802BDC0460029F7D0B6
:1001D00076E770477047C04610B5064C2378002B71
:1001E00007D1054B002B02D0044800E000BF0123DB
:1001F000237010BD0C0000200000000088160008CD
:10020000044B10B5002B03D00349044800E000BFA5
:1002100010BDC04600000000100000208816000835
:1002200072B6FEE710B598B0302200210CA801F09C
:1002300023FA10241022002107A801F01DFA182229
:10024000002101A801F018FA32230B93313B0E93E1
:10025000139310930F9411940BA800F0E1FB002866
:1002600017D107230793043B0893002309930A93AC
:10027000012107A800F0C0FE00280CD10123019342
:100280000023039301A800F06FFF002805D118B0E8
:1002900010BDFFF7C5FFFFF7C3FFFFF7C1FF000069
:1002A00010B501F02BF8FFF7BDFF00F031F800F0BA
:1002B00071F800F08DF8134C0821200001F01FF9AF
:1002C000642001F03DF80821200001F018F903E056
:1002D00008210C4801F013F990200821C00501F015
:1002E00001F90028F4D10821064801F008F9642337
:1002F00001220549054800F0A3FAFA20400001F068
:100300001FF8E9E700040048000000202800002052
:1003100070B588B01422002103A801F0ADF91B4B81
:1003200059698020C003014359615A690240009213
:10033000009A596980208002014359615A6902403C
:100340000192019A5A698021C9020A435A615B6984
:100350000B400293029B0E4D00220821280001F061
:10036000C8F808260396002404940594902003A955
:10037000C00500F0F7FF039601230493059406944B
:1003800003A9280000F0EEFF08B070BD0010024085
:100390000004004810B50C480C4B036096231B0268
:1003A000436000238360C36003610C224261836168
:1003B000C3610362436200F0FDFA002800D110BD62
:1003C000FFF72EFFFBE7C046280000200038014061
:1003D00010B50C480C4B036096231B0243600023AE
:1003E0008360C36003610C2242618361C361036265
:1003F000436200F0DFFA002800D110BDFFF710FFC4
:10040000FBE7C046AC0000200044004010B58AB0B5
:1004100004001422002105A801F02EF92368264AC1
:10042000934204D0254A934225D00AB010BD244BF4
:1004300099698020C001014399619A690240019243
:10044000019A5A69802189020A435A615B690B400B
:100450000293029BC023DB00059302230693002333
:10046000079303330893023B0993902005A9C00525
:1004700000F078FFD9E7124BD9698022920211432C
:10048000D961D9691140039103995969114359619F
:100490005B691A400492049B0A4B0593022306935E
:1004A0000023079303330893023B0993902005A987
:1004B000C00500F057FFB8E7003801400044004095
:1004C0000010024004800000FEE7FEE7704770471E
:1004D00010B500F023FF10BD82B00A4B99690122CC
:1004E0001143996199690A400092009ADA69802162
:1004F00049050A43DA61DB690B400193019B02B0B5
:100500007047C0460010024010B5040083680269BD
:10051000134342691343C269134301680A6851488F
:10052000024013430B60226853684F490B40E16857
:100530000B435360226AA3691A4321688B684B48B6
:10054000034013438B602368494A934223D0494AAE
:10055000934231D01023E06980221202904235D0BC
:10056000042B00D176E064D8002B00D16BE0022B85
:100570005DD1414863685B0818186168FFF7A0FD0A
:100580000004000C0200103A3C4B9A4267D82368E2
:10059000D860002053E03A4B1A6B03231340022B20
:1005A0000CD005D8002B0BD0012B0BD10333D2E795
:1005B000032B09D1013BCEE70023CCE70823CAE790
:1005C0000023C8E71023C6E71023C4E7042B2BD071
:1005D00020D8002B22D0022B1AD127484000636874
:1005E0005B08C0186168FFF76BFD83B20004000C64
:1005F00001001039214A91422FD80F2293431A004B
:1006000040080723184010432368D860002016E0F4
:10061000012014E0082BE1D0012010E000F094FD4F
:100620000028DBD100200AE000F09CFCF8E7012064
:1006300005E0082B02D1802000029BE70120002367
:100640006366A36610BD00F07FFD002800D091E72F
:100650000020F4E700F086FCF7E70120EFE7012037
:10066000EDE7C046F369FFEFFFCFFFFFFFF4FFFFA9
:10067000003801400044004000127A00EFFF000003
:1006800000100240436ADB0706D5026853682C4914
:100690000B40816A0B435360436A9B0706D502688F
:1006A000536828490B40C16A0B435360436A5B0798
:1006B00006D50268536824490B40016B0B43536015
:1006C000436A1B0706D50268536820490B40416BFB
:1006D0000B435360436ADB0606D5026893681C49E6
:1006E0000B40816B0B439360436A9B0606D50268FF
:1006F000936818490B40C16B0B439360436A5B06D8
:100700000BD50268536814490B40016C0B435360CE
:1007100080235B03026C9A420AD0436A1B0606D50B
:10072000026853680D490B40816C0B43536070475E
:10073000026853680A490B40416C0B435360ECE775
:10074000FFFFFDFFFFFFFEFFFFFFFBFFFF7FFFFF40
:10075000FFEFFFFFFFDFFFFFFFFFEFFFFFFFF7FFF1
:10076000FFFF9FFFF8B5CE46474680B506000D0057
:1007700017009946089B98463368DC692C40641B37
:1007800063425C41BC4253D143460133F4D000F094
:10079000D1FD4B46C01A40452CD84346002B29D0EA
:1007A00033681A685207E7D5DA691205E4D5802262
:1007B00012011A62EFF31080012282F3108831686F
:1007C0000B681E4C23400B6080F31088EFF3108001
:1007D00082F3108831688B6893438B6080F31088B4
:1007E0002023B367F3677F32B35054330022F254AF
:1007F00003201EE0EFF31080012282F3108831689D
:100800000B680E4C23400B6080F31088EFF31080D0
:1008100082F3108831688B6893438B6080F3108873
:100820002023B367F36754330022F254032000E01F
:1008300000200CBC90469946F8BDC0465FFEFFFF05
:10084000F0B5C64600B582B004000D0090461E000B
:10085000836F202B66D1002969D0002A69D08023BC
:100860005B0182689A421ED07423E35C012B62D044
:1008700074230122E2540C330022E2505F3BA36751
:1008800000F058FD070050234246E2520233E25284
:1008900080235B01A2689A420CD0002398467423FF
:1008A0000022E2541DE00369002BDDD1CB07DBD52C
:1008B000012038E02369002B02D000239846EEE7A0
:1008C000A8460025EBE743461B88DB05DB0D2268C5
:1008D000138502239C46E0445223E25A013A92B225
:1008E000E2525223E35A9BB2002B0FD000963B00FA
:1008F000002280212000FFF735FF00281DD1002DA8
:10090000E1D02B78226813850135E5E700963B009E
:10091000002240212000FFF725FF00280FD12023CF
:10092000A36700E0022002B004BC9046F0BD0120A5
:10093000F9E70120F7E70220F5E70320F3E70320BA
:10094000F1E7000030B583B0040080230022C250DC
:1009500000F0F0FC050023681B681B070DD423681A
:100960001B685B0716D42023A367E3670023236675
:100970007422A354002003B030BD80210C4B00939F
:100980000300002289032000FFF7ECFE0028E6D0D8
:100990000320F0E78021064B00932B000022C903BF
:1009A0002000FFF7DFFE0028DDD00320E3E7C0468C
:1009B000FFFFFF0110B5041E2ED0836F002B21D046
:1009C0002423A3672268136801218B43136020004E
:1009D000FFF79AFD012814D0636A002B18D1226812
:1009E00053680E490B405360226893682A218B4359
:1009F00093602268136829390B4313602000FFF7C6
:100A0000A1FF10BD74330022C254FFF7FFFCD7E7EB
:100A10002000FFF737FEE2E70120F2E7FFB7FFFF14
:100A200070B582B0041E00D17FE20368DB072BD5CE
:100A3000B34B5A680C231340042B1DD0B04B5A689B
:100A40000C231340082B0ED06368012B41D0002BE0
:100A500056D1AB4B1A68AB490A401A601A68AA49CA
:100A60000A401A603BE0A64B5B68C022520213406A
:100A7000802252029342E7D1A14B1B689B0303D50E
:100A80006368002B00D153E223689B0777D59C4B0A
:100A90005B680C221A4262D0994B5A680C231340AF
:100AA000082B53D0E368002B00D18AE0944A1368E6
:100AB00001210B43136000F03DFC0500904B1B68C7
:100AC0009B0775D400F036FC401B0228F6D90320A2
:100AD0002CE28B4A116880235B020B43136063682E
:100AE000002B25D000F026FC0500854B1B689B03DE
:100AF000CAD400F01FFC401B6428F6D9032015E27D
:100B0000052B09D07E4B1A687E490A401A601A6884
:100B10007D490A401A60E2E7794B19688022D202C7
:100B20000A431A601968802252020A431A60D6E703
:100B300000F000FC0500724B1B689B03A4D500F07D
:100B4000F9FB401B6428F6D90320EFE16C4B5B688E
:100B5000C02252021340802212029342A2D1684B5B
:100B60001B689B0703D5E368012B00D0E2E16449D1
:100B70000B68F82293432269D20013430B60236869
:100B80001B0744D5E369002B2ED05D4A536A01212F
:100B90000B43536200F0CEFB0500594B5B6A9B0789
:100BA00035D400F0C7FB401B0228F6D90320BDE175
:100BB00053490B68F82293432269D20013430B6018
:100BC000DDE74F4A136801218B43136000F0B2FB4D
:100BD00005004B4B1B689B07D1D500F0ABFB401BBE
:100BE0000228F6D90320A1E1454A536A01218B432B
:100BF000536200F09FFB0500414B5B6A9B0706D5E3
:100C000000F098FB401B0228F6D903208EE12368F0
:100C10005B0700D480E03A4BDB69DB001DD4384A27
:100C2000D169802040050143D161D369034001931C
:100C3000019B0125354B1B68DB0510D5A368012BF3
:100C400021D0002B36D12E4B1A6A01218A431A6219
:100C50001A6A03318A431A621AE00025EAE72B4A2E
:100C6000116880235B000B43136000F063FB0600F8
:100C7000264B1B68DB05E1D400F05CFB801B64287D
:100C8000F6D9032052E11E4A136A01210B43136275
:100C9000A368002B24D000F04DFB0600184B1B6A04
:100CA0009B0737D400F046FB801B194B9842F5D9BF
:100CB00003203BE1052B09D0114B1A6A01218A431D
:100CC0001A621A6A03318A431A62E1E70C4B1A6A04
:100CD00004210A431A621A6A03390A431A62D7E7DF
:100CE00000F028FB0600064B1B6A9B0712D500F09C
:100CF00021FB801B064B9842F5D9032016E1C04624
:100D000000100240FFFFFEFFFFFFFBFF00700040EE
:100D100088130000012D39D02368DB0610D56369E4
:100D2000012B39D0053357D1894A536B04218B43AA
:100D30005363536BF4318B43A169C9000B43536375
:100D400023689B066ED5824B5A680C2313400C2BEC
:100D500060D07F4B5A680C231340082B53D0236A72
:100D6000002B7ED07A4A516B80235B020B43536386
:100D700000F0E0FA0500764B5B6BDB0352D400F029
:100D8000D9FA401B0228F6D90320CFE0704AD36974
:100D900070490B40D361BFE76D4B5A6B04210A4386
:100DA0005A635A6B03390A435A6300F0C3FA0500C9
:100DB000674B5B6B9B0706D400F0BCFA401B022814
:100DC000F6D90320B2E062494B6BF8229343A26943
:100DD000D20013434B63B3E75D4B5A6B04210A43C4
:100DE0005A635A6B03398A435A6300F0A3FA050029
:100DF000574B5B6B9B07A3D500F09CFA401B022866
:100E0000F6D9032092E0524B5B68C0225202134095
:100E10009342A4D14E4B5B6BDB0303D5236A012BBA
:100E200000D089E0636A002B00D187E0484A51680E
:100E30000C220A40082A60D0022B25D0444A1368AD
:100E400045490B40136000F075FA0400404B1B68E5
:100E50009B0150D500F06EFA001B0228F6D9032042
:100E600064E03B4A536B3D490B40536300F062FA28
:100E70000500374B5B6BDB03D4D500F05BFA401BFE
:100E80000228F6D9032051E0314A136832490B4059
:100E9000136000F04FFA05002D4B1B689B0106D52F
:100EA00000F048FA401B0228F6D903203EE0284B08
:100EB000DA6A0F218A43216B0A43DA625A682849A9
:100EC0000A40E16AA06A01430A435A601968802215
:100ED00052040A431A6000F02DFA04001C4B1B68F0
:100EE0009B0106D400F026FA001B0228F6D9032045
:100EF0001CE000201AE0002018E0012B20D0144B49
:100F00005A68D96AC0235B021340A06A834219D190
:100F10000F230B40216B8B4216D1F0239B031A4009
:100F2000E36A9A4212D1002000E0012002B070BDB5
:100F30000120FBE70120F9E70120F7E70020F5E7B2
:100F40000120F3E70120F1E70120EFE70120EDE7C1
:100F500000100240FFFFFFEFFFFFFFFEFFFFFEFF5D
:100F6000FF7FC2FF10B588B004AA1E4B13CB13C27B
:100F70001B6813606A461C4B13CB13C21B681360BB
:100F80001A4B5A680C231340082B04D00C2B26D183
:100F9000174808B010BD910C0F23194004A8445CF9
:100FA0001249C96A0B406946C95CC0235B021A40FA
:100FB00080235B029A4208D0C0235B029A4209D088
:100FC0000C48FFF77DF86043E3E70A48FFF778F83D
:100FD0006043DEE70648FFF773F86043D9E705484A
:100FE000D7E7C046A0160008B4160008001002405B
:100FF000006CDC0200127A0070B504000D000028BD
:1010000000D186E0474B1A68012313408B420AD275
:1010100044490B68012293432B430B600B681A4031
:10102000AA4200D077E023689A070ED55B0705D562
:101030003D4A5168E023DB000B4353603A4A536852
:10104000F0218B43A1680B4353602368DB0735D540
:101050006368012B09D0022B24D0032B28D0324AFD
:101060001268920705D4012052E02F4A12689203B9
:1010700053D52D494A680320824313434B6000F047
:1010800059F90600284B5B680C221A4063689B00E4
:101090009A4213D000F04EF9801B244B9842F1D9AC
:1010A000032035E0204A12689201E2D401202FE0AB
:1010B0001D4A526BD203DCD4012029E0194B1A6877
:1010C00001231340AB4209D916490B68012293430F
:1010D0002B430B600B681A40AA4220D123685B07A0
:1010E00006D5114A536812490B40E1680B4353601F
:1010F000FFF738FF0C4B5A6812090F2313400D4AB3
:10110000D35CD8400C4B1860002000F0CFF80020D2
:1011100070BD0120FCE70120FAE70120F8E701207B
:10112000F6E7C0460020024000100240881300008D
:10113000FFF8FFFFC816000808000020014B1868E0
:101140007047C0460800002010B5FFF7F7FF044BBA
:101150005A68120A07231340024AD35CD84010BDD4
:1011600000100240D816000870B582B00400036871
:10117000DB0337D5474BDB69DB005DD4454AD169DA
:10118000802040050143D161D36903400193019B55
:101190000125414B1B68DB0550D53E4B1A6AC02325
:1011A0009B00110019401A4213D0626813408B4211
:1011B0000FD0384B186A394A02401E6A8021490212
:1011C00031431962196A364E314019621A62C307F7
:1011D00048D4304A136A31490B4061680B431362AB
:1011E000012D4ED02368DB0706D52A4A136B032155
:1011F0008B43A1680B43136323689B0606D5254ADE
:10120000136B10218B43E1680B43136323689B032B
:1012100006D5204A136B80218B4361690B4313630E
:1012200023685B0532D51B4A136B40218B43216930
:101230000B43136300202AE00025AAE7164A116831
:1012400080235B000B43136000F074F80600124B20
:101250001B68DB05A1D400F06DF8801B6428F6D96B
:10126000032014E000F066F806000A4B1B6A9B0797
:10127000AFD400F05FF8801B0A4B9842F5D90320E9
:1012800005E0D36908490B40D361ABE7002002B009
:1012900070BDC0460010024000700040FFFCFFFF20
:1012A000FFFFFEFF88130000FFFFFFEF10B50400F3
:1012B0000F4B1978FA208000FEF702FF01000D4B5A
:1012C0001868FEF7FDFE00F053F900280DD1032C3D
:1012D00001D901200AE0013000222100404200F043
:1012E00017F9054B1C60002000E0012010BDC0462E
:1012F00001000020080000200400002010B5064A6C
:10130000136810210B4313600020FFF7CFFFFFF796
:10131000E3F8002010BDC04600200240034A1168D7
:10132000034B1B785B1813607047C04630010020E8
:1013300001000020014B18687047C04630010020B2
:1013400070B50400FFF7F6FF0500631C02D0044BE4
:101350001B78E418FFF7EEFF401BA042FAD370BDE4
:1013600001000020F0B583B0002357E084685F00DF
:101370000326BE40B4432600CC68BC40344384609E
:10138000446894434A681609012232409A40224335
:10139000426053E0DC080834A400265805321A40A5
:1013A00092000F279740BE430F6997403A0032439F
:1013B000225057E0022600E00026A64034003C43BD
:1013C00002329200424E9451424A1468EA43260087
:1013D000AE434F68FF0301D52C4326003D4C2660E9
:1013E0006468260016404F68BF0301D52C432600D1
:1013F000384C6660A468260016404F68FF0201D58D
:101400002C432600334CA660E46822404E68B602A6
:1014100001D52A0022432F4CE26001330C682200E0
:10142000DA4052D001229A40250015401442F4D0EF
:1014300003244E683440013C012C97D903224C68A8
:101440002240032A09D0C2685E000324B440A243AC
:1014500014008A68B2402243C26003224C682240D2
:10146000022A97D004685E0003221700B740BC43ED
:101470004F683A40B24022430260C02292024C6858
:101480001442CAD0144CA66901221643A661A4696D
:1014900022400192019A9A08941CA4000C4EA7596C
:1014A00003241C40A4000F26A640B7439026F6054F
:1014B000B04281D0094EB04205D0094EB04200D1B1
:1014C00078E7052679E7012677E703B0F0BDC04647
:1014D00000000140000401400010024000040048E8
:1014E0000008004803690B4201D00120704700202A
:1014F000FCE7002A01D0816170478162FCE7426904
:1015000013000B401B049143194381617047000095
:1015100070B5002811DB8308134EC0339B009D5922
:1015200003242040C000FF2214008440A543890109
:101530000A4082402A439A5170BD0F230340083B62
:101540009B0806339B00094A944663445C68032267
:101550001040C000FC3215008540AC4389010A40B0
:10156000824022435A60E7E700E100E000ED00E03E
:10157000013880235B0498420FD2094A5060094821
:10158000036A1B021B0AC02109060B4303620023E6
:10159000936007331360002070470120FCE7C046CA
:1015A00010E000E000ED00E07047000013488546C1
:1015B00013480168090E134A914205D11248134994
:1015C000016013481349016013481449144A002369
:1015D00002E0D458C4500433C4188C42F9D3114AE1
:1015E000114C002301E013600432A242FBD3FFF749
:1015F000DBFF00F01DF8FEF753FEFEE700180020A9
:10160000040000001F00000018100240010000004C
:101610000000014000000000000000200C0000203D
:10162000E81600080C00002034010020FEE700004E
:1016300070B500260C4D0D4C641BA410A64209D1B8
:10164000002600F021F80A4D0A4C641BA410A642A3
:1016500005D170BDB300EB5898470136EEE7B300F3
:10166000EB5898470136F2E7E0160008E01600084C
:10167000E0160008E416000803008218934200D127
:10168000704719700133F9E7F8B5C046F8BC08BCDB
:101690009E467047F8B5C046F8BC08BC9E467047E9
:1016A00002030405060708090A0B0C0D0E0F1010A3
:1016B000000000000102030405060708090A0B0CDC
:1016C0000D0E0F10000000000000000000000000E0
:1016D00001020304060708090000000001020304D8
:0416E00001020008FB
:0416E400D901000820
:0C16E800020100000400000000127A0063
:04000005080015AD2D
:00000001FF
